:020000040000FA
:10000000C0F90720A5370000AD370000AF3700006A
:10001000B1370000B3370000B53700000000000022
:10002000000000000000000000000000B7370000E2
:10003000B937000000000000A7260100A735000026
:10004000BF370000CF070100270A0100F30B0100B2
:10005000BF3700000B820000736F0000D7720000F2
:1000600013760000BF370000BF370000BF37000025
:10007000BF370000BF370000BF370000BF370000A8
:10008000BF370000BF370000BF370000BF37000098
:10009000BF370000BF370000BF370000BF37000088
:1000A000BF370000BF370000BF370000BF37000078
:1000B000BF370000BF370000BF370000BF37000068
:1000C000BF370000BF370000BF37000000F002F864
:1000D00000F0B0F80AA090E8000C82448344AAF132
:1000E0000107DA4501D100F0A5F8AFF2090EBAE830
:1000F0000F0013F0010F18BFFB1A43F0010318475C
:1001000010380100503801000A444FF0000C10F87C
:10011000013B13F0070408BF10F8014B1D1108BF85
:1001200010F8015B641E05D010F8016B641E01F825
:10013000016BF9D113F0080F1EBF10F8014BAD1C75
:100140000C1B09D16D1E58BF01F801CBFAD505E093
:1001500014F8016B01F8016B6D1EF9D59142D6D3ED
:10016000704700000023002400250026103A28BF15
:1001700078C1FBD8520728BF30C148BF0B60704719
:100180006E2911F0B580702911F0F781662913F0FE
:100190007480652913F07180672913F06E806129DE
:1001A000AFF3008003681B0A28BF41F08001692972
:1001B00011F06280642911F05F80752911F05C8074
:1001C0006F2911F08481782911F0C381E92911F098
:1001D0001F81E42911F01C81F52911F01981EF2903
:1001E00011F08181F82911F0C2810368DB0928BF71
:1001F00041F08001632911F05085732911F0558574
:10020000E32911F06085F32911F06585002070471E
:100210001FB511F0A9FD04000020002112F08EFA94
:10022000401C60600020002112F09EFAE0601FBDBB
:1002300010B510BD11F073FD1146FFF7E9FF03F093
:1002400041FA11F043FE03B4FFF7F2FF03BC11F0D3
:1002500047FE0000D0F800D0D0F804F0014600209E
:1002600002E0491C421CD0B20A78002AF9D170473A
:100270002DE9F04105460E4614460027FA4800785D
:1002800020B1112020700020BDE8F08128780128DD
:1002900008D0022807D0032802D0042804D100E0A7
:1002A00000BF00BF00BF03E0012020700020EBE78B
:1002B00000BF12F0D7F90746686930603068FFF771
:1002C000CDFF8046384612F0D1F90020207040461C
:1002D000DAE72DE9F04105460E4614460027E248CC
:1002E000007818B112202070BDE8F081287801282C
:1002F00008D0022807D0032802D0042804D100E047
:1003000000BF00BF00BF02E001202070ECE700BF8B
:1003100012F0A8F907466E61384612F0A7F90020DE
:10032000207000BFE0E7F0B5024612F8384F95782C
:100330005678383A0B4618680FE000F10B073F5D1E
:10034000B74300F10B0C0CF8047067463F5D17B91A
:10035000877AAF4387721B1D18680028EDD1F0BD66
:10036000C249C34A1278885CC249095CBF4A515CE1
:1003700001EBC001C04A1170704710B5002412F0A3
:1003800071F90446B8480078F8B9BC480078E0B97B
:10039000FFF7E6FFBA48B849097850F82100B94993
:1003A0000860B5480078B849097888420DD0B5484A
:1003B0000068C06B401CB3490968C863B348006853
:1003C000401CB249086012F064F9204612F04EF960
:1003D00010BD70B501460024AD4D2D68EC61AC4CEC
:1003E000246821620B4618681BE0A94C246894F825
:1003F000385000F10B04645DA54D2D6895F8395017
:100400002C43A34D2D6895F8386000F10B05AC55D1
:10041000847A9F4D2D6895F83A502C4384721B1DA9
:1004200018680028E1D19A4C246894F83820914C3F
:10043000A45C974D2D6895F83950AC438D4DAC5464
:100440002C46A45C44B9924C246894F83A50884CE9
:100450002478AC43864D2C7070BD2DE9FF4F83B0DE
:1004600081460E461546DDF8408000200090306041
:10047000CA46DAF8004018E02078062807D2DFE8FC
:1004800000F00604050307080AE009E008E000BFE1
:1004900000BF012088F80000002007B0BDE8F08F01
:1004A00000BF0AF1040ADAF80040002CE4D16E48DB
:1004B000007820B1022088F800000020EDE76F48A6
:1004C000007820B10D2088F800000020E5E712F048
:1004D000C9F800900020029083460190CA46DAF8DD
:1004E00000405DE02078062849D2DFE800F0481798
:1004F0002A03494A208960B12089401E208110C604
:1005000001200290002001C50BF101001FFA80FBC1
:1005100003E0019840F0010001903CE0606858B1B0
:10052000606801C50020606010C6012002900BF1D8
:1005300001001FFA80FB03E0019840F002000190E7
:1005400029E06768F88AA8B13969081D3861086828
:1005500001C5B9683869884201D178683861F88A7C
:10056000401EF88210C6012002900BF101001FFA14
:1005700080FB03E0019840F0040001900BE000BF15
:1005800000BF009812F072F800203060012088F857
:100590000000584681E700BF0AF1040ADAF800407B
:1005A000002C9FD10298012809D1002030600098CA
:1005B00012F05CF8002088F8000058466DE73448D7
:1005C000006890F83400019941F0800108433049F7
:1005D000096881F8340000202D49096881F8350048
:1005E0002B490698096808634846FFF7F2FE009811
:1005F00012F03CF8FFF7C1FE12F034F800902448E6
:10060000006890F8350020B101281BD0022818D1CD
:1006100000E000BF1E480068C4693CB110C600205D
:1006200030600BF101001FFA80FB09E0012018493E
:10063000096881F83500494615480068FFF773FEE0
:1006400006E000BF494612480068FFF76CFE00BF95
:1006500000BF0F48006890F83500D8B1012842D09B
:1006600002283FD138E0000019C007207E32010087
:100670001DC007201EC007201CC007201AC007206D
:10068000ECCE072034C007201BC0072000C0072085
:100690002CC00720207806280DD2DFE800F00C06D9
:1006A00007030D0E002001C511E000BFFD480068E2
:1006B000406A01C50BE000BF00BF009811F0D6FFF3
:1006C00000203060012088F800005846E5E600BFB1
:1006D000002088F800000CE0002001C50E2088F8FA
:1006E000000006E000BF002001C50A2088F80000D5
:1006F00000BF00BF0020EB49096881F83400E949D8
:10070000096881F83500E7490968C861E549096861
:100710000862E44909684862009811F0A7FF58464A
:10072000BBE67CB5002514E06946284602F0E3F8F4
:10073000064666B9DC4850F8254044B1012C06D085
:10074000D4E9020100EB8100A0640198E064681C18
:10075000C5B23F2DE8D97CBD002400BF02E01420C3
:1007600002F0D2F9D14800780028F8D0D0480068CB
:100770006421B0FBF1F0CE4908600846006828B952
:100780000020CC490870FF2002F0F7F800BF11F0FC
:1007900069FF0446C8480068C84908600020C64987
:1007A0000860204611F062FFC4480068C04909682B
:1007B000B0FBF1F0C0F16400BE49087002F088FEA1
:1007C000FFF7AFFF0A2002F09FF9E0E700B587B01E
:1007D000032000218022BA4BCDE90132CDE903107C
:1007E0004FF6FE703E23B74A0090AFF2930001F03F
:1007F00094FE06AAB4A13E2001F0FFFF07B000BDA1
:10080000002400BF00BF11F02DFF0446AA48006875
:10081000401CA9490860204611F028FF02F04EFE56
:10082000F1E700B587B0032000218022AA4BCDE973
:100830000132CDE903104FF6FF703F23A74A009025
:10084000AFF2430001F069FE06AAA5A13F2001F026
:10085000D4FF07B000BD04E0002200F8012B4A1EBF
:1008600091B20029F8D1704770B5F021A048FFF788
:10087000F2FF002411E0601C85B204EB44009C49A7
:1008800001EBC00305EB450001EBC006002018702A
:100890005E6098A05861601C84B2092CEBD304EB15
:1008A0004400934901EBC00300201870586091A0E8
:1008B000586108469049086070BD70B54FF4F26108
:1008C0008E48FFF7C8FF4FF480717748FFF7C3FFEA
:1008D000002413E0601CC5B204EB440000EBC4002C
:1008E000864901EBC00305EB450000EBC50001EBB9
:1008F000C0065E617FA01865601CC4B2152CE9D3E8
:1009000004EB440000EBC4007C4901EBC003002071
:10091000586178A0186500207949086077487949BE
:10092000086070BD0021784A1170002004E00021A9
:10093000764A1154411CC8B20828F8D30021744AE1
:100940001170744A1170744A1160564A11607047F0
:100950000020724908607249087072490870724933
:100960000870724908707249086053490860534919
:1009700008604F4908604D490870704710B502F093
:1009800081FDFFF7E5FFFFF7CDFFFFF796FFFFF7CC
:100990006BFF00F0B3FE00F0A4FF01F0A6FAFFF732
:1009A00040FFFFF713FF02F035FC02F07AFD02F082
:1009B000BBFC10BD5D480078012808D1584800787C
:1009C000FF2804D256480078401C554908707047EB
:1009D00010B5002455480078012830D111F042FEAE
:1009E00004464F48007820B14D480078401E4C49DD
:1009F00008704B480078F8B94A480078E0B9FFF72A
:100A0000AFFC29484349097850F821004249086061
:100A1000404800783E49097888420DD03E48006839
:100A2000C06B401C3C490968C86341480068401CD1
:100A30003F49086011F032FE204611F017FE10BD4C
:100A400010B5002439480078012811D111F00AFEB0
:100A500004463348007840B932480078FF2804D271
:100A600030480078401C2F490870204611F0FEFDE8
:100A700010BD10B500242D48007801286CD111F06C
:100A8000F1FD04462748007850B126480078401E02
:100A9000244908700846007818B92148007849E0D0
:100AA00057E052E02CC00720ECCE072018C00720EA
:100AB00010C007200CC0072028C0072014C0072042
:100AC000ECCA0720E8CC072075432F4F532D494926
:100AD0002053746174000000ECCC0720E8CE07209E
:100AE00075432F4F532D49492049646C6500000020
:100AF000ACC907203F00000004C00720ECCF07204E
:100B000038C0072030C007201DC007201EC00720A6
:100B10001BC007201CC0072034C0072048C0072086
:100B200019C007201AC0072027C0072026C00720A9
:100B300000C0072028B9204611F098FDFFF71DFCE2
:100B40000AE0204611F092FD06E0204611F08EFDED
:100B500002E0204611F08AFD10BD10B5EA48007889
:100B600090B9FFF7FDFBE9480078E9490870E948CA
:100B7000E649097850F82100E7490860084600680E
:100B8000E649086011F075FD10BD10B50024022083
:100B900001F0BAFF11F066FD04460020E04908604C
:100BA000204611F063FD0A2001F0AEFF11F05AFD5E
:100BB0000446DB480068DB4908600120DA49087018
:100BC000204611F053FD10BD70B5002602F0DAFC8E
:100BD00011F048FD0646D5480068401CD34908601E
:100BE000304611F043FDC8480078012853D1D04861
:100BF000007820B1012804D0022809D103E00125A2
:100C00000BE0002509E001250120C949087004E036
:100C100001250020C649087000BF00BF05B970BD9E
:100C2000C448046833E011F01DFD0646206B50B344
:100C3000206B401E2063206B28BB94F8340000F02A
:100C4000370040B114F8340F00F0C80020700120C4
:100C50006070343C02E0002084F8350094F83400E1
:100C600000F0080078B93834A078B349097808430F
:100C7000B14908702078B149085C6178084314F8DC
:100C80003819AE4A50546469304611F0EFFC94F8BC
:100C900036003F28C7D100BFC1E740F2231070479C
:100CA000704710B590F8382001F10B039B5C90F869
:100CB0003940A34301F10B04A35423469B5C23B9A1
:100CC0008B7A90F83A40A3438B7210BD2DE9F04F18
:100CD00005460F4690469946A87A99490E5C05F15B
:100CE0000B00805D11F800B00BEBC60000F0FF0AAE
:100CF000884850F82A4000202434E0602760207C97
:100D000020EA0800207484F81190207C243C00F034
:100D1000080068B994F83A00874909780843864979
:100D200008708648805D94F83910084383498855D7
:100D300029462046FFF7B5FF206A20B12046216AE8
:100D4000FFF7F1FAE5615046BDE8F08F10B5734A40
:100D50001268D061714A126892F8383000F10B02C3
:100D6000D25C6E4B1B6893F839301A436B4B1B688F
:100D700093F8384000F10B031A55827A674B1B68D1
:100D800093F83A301A438272644A126892F8381023
:100D90006A4A525C614B1B6893F839309A43674B3F
:100DA0005A541A46525C42B95C4A126892F83A3078
:100DB000614A12789A43604B1A7010BD01460022B6
:100DC0008A72002005E0002301F10B021354421C3B
:100DD000D0B20828F7D3704705E011F8013B00F8BE
:100DE000013B531E9AB2002AF7D170472DE9F84F04
:100DF00005460F4690469946DDE90AAB0020009073
:100E000011F030FC00904F480468002C76D01C3460
:100E100054F8080C4B490860009811F027FC44F87E
:100E20001C7CA576002020766076606144F818BCB2
:100E300044F810AC44F8148C0C9824F80C0C24F8EA
:100E40000A9C0020E077E810207705F00700E076A4
:100E5000217F01208840A077E17E012088406077D3
:100E6000002020606060E060A0602062A06260629C
:100E7000E0622063AFF2843060631C3C002606E031
:100E8000002104F1540040F82610701CC6B2002E58
:100E9000F6D0204602F070FB204602F003FB11F072
:100EA000E1FB00901B4840F8254022480068606143
:100EB0000020A0611F48006810B11E4800688461CE
:100EC0001C4804603834A0781B49097808431A4943
:100ED000087020781949085C6178084314F83819BB
:100EE000164A505418480078401C1749087000985A
:100EF00011F0BCFB0020BDE8F88FFFE7009811F06F
:100F0000B5FB4220F7E7000026C007201CC00720E1
:100F10001BC00720ECCE072034C007202CC00720C0
:100F200028C0072010C0072018C0072048C007208D
:100F30003CC0072038C007201DC007201EC0072066
:100F40007E32010030C0072027C007202DE9F05F66
:100F500004460F4691461E464FF0000B20780528A8
:100F600004D0012030700020BDE8F09F09F0800A15
:100F7000BAF1000F04D029F080094FF0010801E018
:100F80004FF000080020307011F06CFB8346B9F17F
:100F9000000F2CD0B9F1010F3BD0B9F1020F03D0F3
:100FA000B9F1030F46D111E0208900EA0705BD42DF
:100FB00006D1B8F1010F05D12089A843208101E0B5
:100FC00070203070584611F051FB3AE0208900EA59
:100FD000070535B1B8F1010F05D12089A84320815B
:100FE00001E070203070584611F040FB29E0208964
:100FF00027EA0005BD4206D1B8F1010F05D12089CD
:101000002843208101E070203070584611F02EFBFB
:1010100017E0208927EA000535B1B8F1010F05D1A5
:1010200020892843208101E070203070584611F05B
:101030001DFB06E0584611F019FB00256F203070AB
:1010400000BF00BF28468FE72DE9F04106460D4658
:101050000027FA48007820B1102028700020BDE851
:10106000F08111F0FFFA0746F548046884B1006882
:101070004068F349086005202070268100206060E8
:10108000F0A0E060384611F0F1FA0020287004E08A
:10109000384611F0EBFA722028702046DFE730B5B1
:1010A00001464A6808682AB9CC68606028B1002502
:1010B000456002E0106000B142608B6800259D62CF
:1010C00030BDF0B506460F46B46800202C34606091
:1010D0002780207A00F0DF00207200206072207AE2
:1010E0002C3C88B93834A078D74909780843D649C8
:1010F00008702078D549085C6178084314F83819DD
:10110000D24A5054012500E000253046FFF7C7FFC2
:101110002846F0BD2DE9F0470446894615464FF0B4
:10112000000AC648007820B10F2028702046BDE88C
:10113000F0872078052803D0012028702046F6E7A4
:1011400011F090FA8246606808B1012700E000279C
:10115000B9F1000F03D0B9F1010F3CD119E08FB9FB
:10116000B8A0E06000202070B548006860600020F2
:101170002081B3480460504611F078FA00202870AE
:10118000002605E0504611F071FA492028702646E5
:1011900028E0D4F8048005E000214046FFF791FFE5
:1011A000D8F80080B8F1000FF6D1A6A0E0600020CA
:1011B0002070A3480068606000202081A04804607F
:1011C000504611F053FA012F01D1FFF7D6F8002055
:1011D0002870002606E0504611F048FA07202870D3
:1011E000264600BF00BF3046A1E72DE9F041054685
:1011F0000E46144600279148007820B11120207037
:101200000020BDE8F08111F02DFA07462878052866
:1012100006D0384611F02AFA012020700020F0E7AD
:10122000E86830603068FFF719F88046384611F0FA
:101230001DFA002020704046E3E72DE9F041054605
:101240000E46144600277D48007818B11220207001
:10125000BDE8F08111F006FA07462878052805D088
:10126000384611F003FA01202070F1E7EE603846AD
:1012700011F0FCF90020207000BFE9E7F0B514463A
:10128000059E734F3F6897F8347047F02007DFF8EA
:10129000C0C1DCF800C08CF834700027DFF8B0C1A2
:1012A000DCF800C08CF83570694F3F683E63684FCA
:1012B0003F68B9620C828B74654F3F688F604768E6
:1012C0000F6000274F60C860456805B169604160E4
:1012D0005F4F3F6897F838205C4FBF5CDFF870C104
:1012E000DCF800C09CF839C027EA0C07DFF85CC1C5
:1012F0000CF802706746BF5C5FB9554F3F6897F8BE
:101300003AC0514F3F7827EA0C07DFF83CC18CF810
:101310000070F0BD2DE9F04F89B005460F469146AB
:101320009A46129E002002904448007828B102207C
:101330003070002009B0BDE8F08F4648007818B141
:101340000D2030700020F5E72878052803D0012013
:1013500030700020EEE709F0800BBBF1000F04D0E5
:1013600009F07F094FF0010801E04FF0000811F08B
:1013700079F90290B9F1000F4AD0B9F1010F78D094
:10138000B9F1020F03D0B9F1030F71D120E0288920
:1013900000EA0704BC420FD1B8F1010F02D128893D
:1013A000A04328812A4800688485029811F05EF9DC
:1013B000002030702046BDE74B463A4604A9284637
:1013C000CDF800A0FFF75AFF029811F04FF978E02E
:1013D000288900EA07047CB1B8F1010F02D12889FD
:1013E000A04328811A4800688485029811F03EF9CC
:1013F0000020307020469DE74B463A4604A9284617
:10140000CDF800A0FFF73AFF029811F02FF958E04D
:10141000288927EA0004BC421ED1B8F1010F02D18D
:101420002889204328810A4800688485029811F0A1
:101430001DF90020307020467CE71AE019C0072013
:1014400008C007203F0000001DC007201EC0072065
:101450002CC007201AC007204B463A4604A928464C
:10146000CDF800A0FFF70AFF029811F0FFF828E07E
:101470001FE0288927EA00047CB1B8F1010F02D1EE
:10148000288920432881B14800688485029811F09A
:10149000EDF80020307020464CE74B463A4604A950
:1014A0002846CDF800A0FFF7E9FE029811F0DEF81B
:1014B00007E0029811F0DAF800246F20307020461F
:1014C00038E700BFFEF759FF11F0CCF802909F48B3
:1014D000006890F8350020B39C48006890F835000B
:1014E000039000209949096881F8350004A8FFF7A6
:1014F000D6FD00209549096881F83400029811F062
:10150000B5F800240398012805D0022802D10E2046
:10151000307003E000BF0A20307000BF00BF2046DB
:1015200008E78A480068848DB8F1010F1ED1B9F12F
:10153000000F0ED0B9F1010F0CD0B9F1020F03D09A
:10154000B9F1030F0AD100E000BF2889A043288128
:101550000BE000BF28892043288106E0029811F0A3
:1015600085F86F2030700020E4E600BF029811F08B
:101570007DF8002030702046DCE670B5002511F0C3
:1015800071F8054671480068848D284611F06EF8A0
:10159000204670BD2DE9FC5F0446894692461E46F2
:1015A000002000902078052804D001203070002011
:1015B000BDE8FC9F11F056F80090BAF1000F03D07F
:1015C000BAF1010F0AD104E0208920EA0900208144
:1015D0000BE0208940EA0900208106E0009811F024
:1015E00045F8712030700020E2E700BF4FF0000B9B
:1015F000656855E0A87C40B3012838D0022802D0A5
:10160000032844D111E02089298A00EA0107288AA9
:10161000B84209D139462846FFF753FD8046B8F154
:10162000010F01D14FF0010B38E02089298A00EA2F
:1016300001074FB139462846FFF743FD8046B8F110
:10164000010F01D14FF0010B28E0288A218920EAFF
:101650000107288AB84209D139462846FFF731FDEB
:101660008046B8F1010F01D14FF0010B16E0288A36
:10167000218920EA01074FB139462846FFF721FDAD
:101680008046B8F1010F01D14FF0010B06E0009840
:1016900010F0ECFF6F203070002089E700BF2D684C
:1016A000002DA7D1009810F0E1FFBBF1010F01D18F
:1016B000FEF763FE10F0D6FF00902089019000989D
:1016C00010F0D4FF00203070019871E72DE9F0414F
:1016D00004460D4600272078052804D001202870F4
:1016E0000020BDE8F08110F0BDFF0746268938468E
:1016F00010F0BCFF002028703046F2E72DE9F041E1
:1017000050211348FFF7A7F800250EE0681C86B2A9
:101710000F4800EB051400EB0617002020706760EF
:10172000AFF2E020E060681C85B2042DEED30848DB
:1017300000EB0514002020706060AFF2F820E0603C
:10174000034804490860BDE8F08100002CC0072070
:101750009CCA072008C007202DE9FC5F05460F46FC
:1017600091469A460020009010F07CFF00906F4850
:101770000468006820B16D48006840686B490860E3
:10178000009810F073FF2CB95A208AF8000000204E
:10179000BDE8FC9FA8462E46781E01904FF0000B36
:1017A00005E04E44C8F80060B0460BF1010B01980B
:1017B0008345F6D30020C8F80000256065602761E6
:1017C000E760C4F808908AF800002046E0E72DE9B9
:1017D000F04104460D46002710F044FF07462069FB
:1017E00068B16668306860602069401E20613846D4
:1017F00010F03CFF002028703046BDE8F0813846EC
:1018000010F034FF5D2028700020F6E72DE9F0414C
:1018100006460C46154600274548007820B11120A1
:1018200028700020BDE8F08110F01CFF07467069A9
:1018300020602068FEF712FD8046384610F016FF43
:10184000002028704046EDE72DE9F04105460E46A0
:10185000144600273648007818B112202070BDE8E1
:10186000F08110F0FFFE07466E61384610F0FEFE74
:101870000020207000BFF2E770B504460D46002638
:1018800010F0F0FE0646D4E90310884204D3304637
:1018900010F0ECFE5E2070BD606828606560206915
:1018A000401C2061304610F0E1FE0020F3E770B5E7
:1018B00005460C46002610F0D5FE06462868206036
:1018C00068686060A868A060E868E06028692061D6
:1018D000304610F0CBFED4E90301401A60610020CD
:1018E00070BD70B578211348FEF7B5FF00240EE0F7
:1018F00004EB44000F4901EBC005601C00EB400005
:1019000001EBC00068600CA06861601C84B2042C0C
:10191000EED304EB4400074901EBC00500206860EA
:1019200005A0686108460149086070BD40C00720F5
:1019300019C007207CD707203F0000002DE9F041A7
:1019400006460D464FF000083078022804D00120EA
:1019500028700020BDE8F08110F084FE8046746895
:10196000E08A78B12169081D20610F68E08A401E75
:10197000E082A1682069884201D16068206100206E
:10198000287002E01F2028700027404610F06EFEED
:101990003846DFE72DE9F04106460F464FF00008D4
:1019A000F748007810B10020BDE8F08110F05AFE31
:1019B0008046F4480468006820B1F2480068406836
:1019C000F0490860404610F051FEFCB110F04AFEAC
:1019D0008046ED480568D5B100680068EA490860AE
:1019E000404610F043FE6E6006EB8700A860EE6094
:1019F0002E61AF820020E88202202070002020812A
:101A00006560E2A060612046FFF7D8F908E0DD4894
:101A100000686060DB480460404610F027FE002448
:101A20002046C1E72DE9F0470446894615464FF0A8
:101A3000000A2078022804D0012028702046BDE842
:101A4000F087CF48007818B10F2028702046F6E7BD
:101A500010F008FE8246A07A10B14FF0010801E0B4
:101A60004FF00008B9F1000F03D0B9F1010F49D1CF
:101A700021E0B8F1000F17D1C4A060616668C248C8
:101A800000683060C048066000202070BD480068D3
:101A9000606000202081BB480460504610F0E6FDE5
:101AA00000202870002705E0504610F0DFFD492097
:101AB000287027462DE005E0002304221946204621
:101AC000FFF704F9A07A0028F6D1B0A0606166683B
:101AD000AD4800683060AC48066000202070A9481E
:101AE0000068606000202081A6480460504610F025
:101AF000BDFDB8F1010F01D1FEF73FFC00202870B9
:101B0000002706E0504610F0B1FD07202870274658
:101B100000BF00BF384692E770B50546002610F0BA
:101B2000A1FD06466C686068E06060682061002086
:101B3000E082304610F09AFD002070BD2DE9F0479C
:101B40000746884615464FF000093878022804D029
:101B5000012028700020BDE8F0878948007818B17E
:101B6000022028700020F6E78948007818B10D207F
:101B700028700020EFE710F075FD81467C68E08A50
:101B800098B12169081D20610E68E08A401EE0823C
:101B9000A1682069884201D160682061484610F040
:101BA00065FD002028703046D5E77A48006890F837
:101BB000340040F004007749096881F834000020BF
:101BC0007449096881F8350072480068C0F83080AF
:101BD0003846FFF7BBF8484610F048FDFEF7CDFB4E
:101BE00010F040FD81466B48006890F8350020B148
:101BF00001280DD002280AD105E066480068466A2F
:101C0000002028700DE000260E20287009E000BF9B
:101C1000394660480068FFF744F800260A2028701B
:101C200000BF00BF00205B49096881F834005949B2
:101C3000096881F8350057490968C861554909683C
:101C40000862544909684862484610F00FFD304662
:101C500081E72DE9F04104460F4615464FF0000894
:101C60002078022804D0012028700020BDE8F081EF
:101C700010F0F8FC8046A07A20B300267FB1012F37
:101C80000CD107E00223042200212046FFF71EF8B2
:101C9000701CC6B2A07A0028F4D109E000BF02236C
:101CA000042200212046FFF711F8701CC6B200BFC5
:101CB00000BF404610F0DAFCFEF75FFB0E202870F4
:101CC0003046D3E7404610F0D1FC0020287000BF1A
:101CD000CCE72DE9F04105460E460027287802287A
:101CE00002D00120BDE8F08110F0BCFC0746A87AC4
:101CF00060B10023042231462846FEF7E7FF38464C
:101D000010F0B4FCFEF739FB0020EBE76C68E08ACA
:101D1000A18A884204DB384610F0A8FC1E20E1E7C7
:101D2000E168081DE0600E60E08A401CE082D4E9B2
:101D30000210884201D16068E060384610F096FCDD
:101D40000020CFE72DE9F04105460E460027287810
:101D5000022802D00120BDE8F08110F083FC074684
:101D6000A87AC8B10023042231462846FEF7AEFF08
:101D7000384610F07BFCFEF700FB0020EBE700008C
:101D800019C0072004C0072044C007203F000000FE
:101D90001AC007202CC007206C68E08AA18A8842FC
:101DA00004DB384610F062FC1E20D4E7616820692D
:101DB000884201D1A06820612069001F206120694C
:101DC0000660E08A401CE082384610F04FFC00209C
:101DD000C1E72DE9F04105460F4616464FF00008D1
:101DE0002878022802D00120BDE8F08110F03AFCEA
:101DF0008046A87AE8B106F0010050B105E0002362
:101E0000042239462846FEF761FFA87A0028F6D159
:101E100005E00023042239462846FEF757FF4046D6
:101E200010F024FC06F0040008B9FEF7A6FA002022
:101E3000DAE76C68E08AA18A884204DB404610F049
:101E400015FC1E20D0E706F0020058B16168206939
:101E5000884201D1A06820612069001F20612069AB
:101E6000076009E0E168081DE0600F60D4E9021036
:101E7000884201D16068E060E08A401CE082404610
:101E800010F0F4FB0020AFE72DE9F04705460C46C3
:101E90004FF0000A2878022802D00120BDE8F08720
:101EA00010F0E0FB8246A87A207405F10B0804F1DB
:101EB0000809002705E018F8010B09F8010B781C48
:101EC000C7B2082FF7D36E68F08A18B1306900687E
:101ED000206001E000202060F08AA080B08AE080CD
:101EE000504610F0C3FB0020D8E72DE9F0416021F7
:101EF0001048FEF7B0FC00240DE0601C86B204EB35
:101F000044000C4901EBC00506EB460001EBC0079D
:101F10002F60601C84B2032CEFD304EB440005490E
:101F200001EBC00500202860084603490860BDE8B1
:101F3000F0810000F4D7072044C0072070B50446A4
:101F400000262078032801D0002070BD10F08AFB05
:101F50000646258915B12089401E2081304610F0A3
:101F600085FB2846F1E770B505460026D74800787E
:101F700008B1002070BD10F075FB0646D448046817
:101F8000006820B1D24800684068D14908603046F6
:101F900010F06CFB4CB103202070258100206060A4
:101FA000CCA060612046FEF709FF2046E2E72DE95C
:101FB000F0470446884615464FF00009207803286C
:101FC00004D0012028702046BDE8F087BF48007883
:101FD00018B10F2028702046F6E710F043FB814629
:101FE000A07A08B1012700E00027B8F1000F03D064
:101FF000B8F1010F3AD119E08FB9B6A060610020A5
:102000002070B3480068606000202081B048046000
:10201000484610F02BFB00202870002605E04846BB
:1020200010F024FB49202870264626E005E0002316
:10203000012219462046FEF749FEA07A0028F6D173
:10204000A4A0606100202070A148006860600020AA
:1020500020819F480460484610F008FB012F01D101
:10206000FEF78BF900202870002606E0484610F0A5
:10207000FDFA07202870264600BF00BF3046A3E7C0
:102080002DE9F04105460E4614460027287803281E
:1020900003D001202070BDE8F0818C48007810B199
:1020A00002202070F7E78C48007810B10D202070D6
:1020B000F1E710F0D7FA0746288940B12889401E79
:1020C0002881384610F0D2FA00202070E3E78348D8
:1020D000006890F8340040F001008049096881F8F8
:1020E000340000207D49096881F835007B4800688C
:1020F00006632846FEF72AFE384610F0B7FAFEF7C8
:102100003CF910F0AFFA07467448006890F83500C3
:1021100020B1012809D0022806D102E00020207059
:102120000BE00E20207008E000BF29466B480068D5
:10213000FEF7B7FD0A20207000BF00BF00206749EE
:10214000096881F834006549096881F835006349F8
:102150000968C861614909680862384610F086FA62
:1021600000BF98E72DE9F04104460F4615464FF0B1
:1021700000082078032804D0012028700020BDE842
:10218000F08110F06FFA8046A07A20B300267FB16C
:10219000012F0CD107E00223012200212046FEF787
:1021A00095FD701CC6B2A07A0028F4D109E000BFEA
:1021B0000223012200212046FEF788FD701CC6B2D2
:1021C00000BF00BF404610F051FAFEF7D6F80E20CF
:1021D00028703046D3E7404610F048FA00202870B7
:1021E00000BFCCE770B5044600252078032801D055
:1021F000012070BD10F036FA0546A07A60B10023C8
:10220000012219462046FEF761FD284610F02EFAFD
:10221000FEF7B3F80020ECE720894FF6FF71884203
:1022200007D22089401C2081284610F01FFA002088
:10223000DFE7284610F01AFA3320DAE72DE9F047F5
:1022400004460D464FF000092078032802D00120F3
:10225000BDE8F08710F006FA8146A07AA87204F172
:102260000B0705F10208002605E017F8010B08F836
:10227000010B701CC6B2082EF7D32089288048466F
:1022800010F0F4F90020E3E72DE9F04104460E4692
:10229000154600272078032803D001202870BDE8C8
:1022A000F08110F0DFF9074600202870208908B17E
:1022B000268105E0A07A08B9268101E0492028702E
:1022C000384610F0D3F900BFE9E7000019C0072035
:1022D00004C007203F0000001AC007202CC00720C0
:1022E0002DE9F34F85B088460020019010F0BAF92F
:1022F0000190FE4850F8280030B1019810F0B6F96E
:10230000282007B0BDE8F08F0598FF2804D1F848D1
:10231000006890F836000590F449059851F820506F
:1023200025B9019810F0A2F92920EAE7012D04D17E
:10233000019810F09BF94320E3E74FEAE80708F023
:10234000070003900120B84000F0FF090121039825
:10235000814001F0FF0A0021E44A059842F820106C
:10236000104640F8285095F8386095F83A000290E9
:1023700095F839B0DF48805D00EA0B00D0B1DD4848
:10238000805D20EA0B00DB4988550846805D28B94E
:10239000D948007802998843D7490870D648007810
:1023A00040EA0900D4490870D248C05D40EA0A00FA
:1023B000D049C855EC69D4B104F10B00805D20EA26
:1023C0000B0004F10B0188550846805D18B9A07A0E
:1023D00002998843A072A07A40EA0900A07204F131
:1023E0000B00C05D40EA0A0004F10B01C855286AE1
:1023F00030B3286A0490049804681FE004F10B00CD
:10240000805D20EA0B0004F10B0188550846805DD1
:1024100018B9A07A02998843A072A07A40EA09000C
:10242000A07204F10B00C05D40EA0A0004F10B0148
:10243000C8550498001D049004980468002CDDD150
:1024400085F8368085F83870039885F8370085F868
:102450003A9085F839A0019810F008F9A74800785B
:10246000012801D1FDF789FF00204AE72DE9FE4F41
:1024700006460F4690461C464FF0000910F0F2F851
:1024800081469F48007828B1484610F0EFF83C207C
:10249000BDE8FE8F954850F8240060BB01209349A9
:1024A00041F82400484610F0E1F80023424639463E
:1024B000304601F011F8824600200090019003465A
:1024C0000246514602902046FEF790FC054635B97B
:1024D0008A48007801280CD1FDF74FFF09E010F081
:1024E000C1F881460020814941F82400484610F097
:1024F000BDF82846CCE7484610F0B8F82820C7E7D2
:1025000002F0010343B102F002032BB102E0491EC5
:10251000002308C00029FAD170472DE9F04F85B09B
:1025200081468A4693461C46DDE90F78129D0020BD
:10253000039010F097F803907148007830B1039839
:1025400010F094F83C2005B0BDE8F08F674850F8D3
:10255000240088BB0120654941F82400039810F04D
:1025600085F82A4641463846FFF7CAFF2B465A46A9
:102570005146484600F0B0FF04901198CDE9008024
:1025800002953A4620460E9B0499FEF72FFC06461C
:1025900036B95A48007801280CD1FDF7EEFE09E063
:1025A00010F060F803900020504941F8240003988F
:1025B00010F05CF83046C6E7FFE7039810F056F8D5
:1025C0002820C0E72DE9F041054600274C48007857
:1025D00010B14020BDE8F0813F2D01D13E20F9E748
:1025E00010F040F80746FF2D03D14148006890F8ED
:1025F00036503E4850F8254024B9384610F036F899
:102600004320E7E7012C04D1384610F02FF83D2095
:10261000E0E714F8380F3749085C6178884321787F
:10262000344A505414F838091146085C30B994F80B
:102630003A103148007888432F490870E06918B192
:102640002046E169FEF72DFB206A18B12046216A79
:10265000FDF769FEA66A16B13046FEF720FD0020A0
:10266000206384F8340084F8350026480078FF2879
:1026700004D224480078401C2249087038460FF0E4
:10268000F5FFFEF70DFB0FF0EDFF07461D48007844
:1026900020B11C480078401E1A490870204600F0FE
:1026A00007FF19480078401E1749087000200F499D
:1026B00041F82500A06930B900206169886113499B
:1026C0006069086005E0D4E905014861D4E90510B6
:1026D00088610F48006860610D4804600DA02065A6
:1026E00038460FF0C3FF0548007815E0ECCE072010
:1026F0002CC007201EC007201DC0072026C00720B1
:1027000019C007201AC0072027C0072038C007209B
:1027100030C007203F000000012801D1FDF72DFE49
:10272000002057E72DE9F041044600273F2C02D155
:102730003E20BDE8F081FF2C0BD10FF093FF074640
:10274000EB48006890F83B6038460FF08FFF30464A
:10275000EFE70FF087FF0746E64850F8245025B909
:1027600038460FF083FF4320E3E7012D04D13846BC
:102770000FF07CFF3D20DCE73F2085F83B0038462A
:102780000FF074FF0020D4E72DE9F04706460F460E
:1027900014464FF00008D848007820B1112020706E
:1027A0000020BDE8F0870FF05DFF8046FF2E03D1CB
:1027B000CF48006890F83660CE4850F8265035B9BA
:1027C00040460FF053FF432020700020E9E7012D21
:1027D00006D140460FF04AFF432020700020E0E77A
:1027E000286D38603868FDF739FD814640460FF0A6
:1027F0003DFF002020704846D3E72DE9F041064612
:102800000F4614464FF00008BB48007818B112205C
:102810002070BDE8F0810FF025FF8046FF2E03D128
:10282000B348006890F83660B24850F826502DB989
:1028300040460FF01BFF43202070EAE7012D05D131
:1028400040460FF013FF43202070E2E72F6540461B
:102850000FF00CFF0020207000BFDAE770B50546CE
:1028600000260FF0FFFE0646A24850F8254024B986
:1028700030460FF0FBFE462070BD012C04D13046DF
:102880000FF0F4FE4320F7E794F8340000F008005E
:1028900060B314F8340F00F0F700207014F8340916
:1028A000F8B9206BC8B93834A0789449097808433E
:1028B0009249087020789249085C6178084314F8BE
:1028C00038198F4A505430460FF0D0FE8D480078AA
:1028D000012809D1FDF751FD06E030460FF0C6FE94
:1028E00002E030460FF0C2FE0020C5E730460FF090
:1028F000BDFE4420C0E72DE9F04707460D464FF0E6
:10290000000A0020286068600FF0ACFE8246FF2FAE
:1029100003D17748006890F83670764850F8274021
:102920002CB950460FF0A2FE4320BDE8F087012CE1
:1029300004D150460FF09AFE4320F6E7207C00F0C9
:10294000010020B950460FF091FE4520EDE700262A
:10295000D4F80C90D4F8088050460FF087FE00E0C1
:10296000761C58F8041B0029FAD0B0002860A9EBA7
:102970000600800068600020D7E72DE9F041054699
:102980004FF000080FF06EFE8046FF2D05D158482D
:10299000006890F83650012608E05548006890F825
:1029A0003600A84201D1012600E00026514850F827
:1029B00025402CB940460FF059FE4820BDE8F08173
:1029C000012C04D140460FF051FE4320F6E794F865
:1029D00038704B48C05D94F8391088434849C85551
:1029E0000846C05D30B994F83A10444800788843EE
:1029F0004249087094F8340040F0080084F834002C
:102A000040460FF033FE012E01D1FDF7B6FC002049
:102A1000D4E72DE9F04105460E4600270FF022FECF
:102A20000746FF2D03D13248006890F836503148F0
:102A300050F825402CB938460FF018FE2920BDE883
:102A4000F081012C04D138460FF010FE4320F6E748
:102A5000582221463046FEF7BFF938460FF006FEF1
:102A60000020ECE72DE9F04704460E4617464FF0EC
:102A700000090FF0F7FD8146FF2C02D11C480568C4
:102A800002E01C4850F8245005F1540050F826800C
:102A900048460FF0EBFD002038704046BDE8F08757
:102AA0002DE9F04704460E46174698464FF00009B8
:102AB0000FF0D8FD8146FF2C02D10D48056802E0D9
:102AC0000C4850F8245005F1540040F82670484650
:102AD0000FF0CCFD002088F80000BDE8F08710B5AD
:102AE0000348006800F0EEFCFF20FFF76BFD10BD0F
:102AF0002CC00720ECCE072019C007201DC00720DE
:102B00001EC0072026C0072070B505460026634872
:102B1000007800B170BD6248007800B1FAE71DB3DB
:102B20000FF0A0FD06465F48006890F838405E4808
:102B3000005D5C49096891F8391088435A49085585
:102B40000846005D40B95748006890F83A10574869
:102B5000007888435549087052480068056330463C
:102B60000FF084FDFDF709FC00BFD3E72DE9F0412C
:102B700004460D4616461F464848007810B15520B9
:102B8000BDE8F0814648007808B13220F8E7781DAA
:102B9000642148434FF47A71B0FBF1F14FF4616066
:102BA0006043C5EB051200EB8200304400EBC0022D
:102BB00002EB001001EB80084046FFF7A5FF002064
:102BC000DEE770B5054600263F2D01D32A2070BDF3
:102BD0000FF048FD0646364850F8254024B93046E7
:102BE0000FF044FD4320F2E7012C04D130460FF0F2
:102BF0003DFD4320EBE7206B20B930460FF036FD5A
:102C00005020E4E70020206394F8340000F03700FF
:102C100040B114F8340F20F03700207001206070AC
:102C2000343C02E0002084F8350094F8340000F0D1
:102C30000800A8B93834A0781C49097808431B4912
:102C4000087020781849085C6178084314F838192E
:102C5000154A505430460FF009FDFDF78EFB02E097
:102C600030460FF003FD0020B1E770B500250FF0EE
:102C7000F9FC05460F48046828460FF0F7FC20468B
:102C800070BD70B5044600250FF0ECFC0546094800
:102C9000046028460FF0EAFC70BD000019C0072050
:102CA0001AC007202CC007201EC007201DC0072007
:102CB000ECCE072048C00720FC48006808B9002077
:102CC0007047FA480168F94AC86810600020C86077
:102CD0000861F7480088401CF54A1080F5480088D4
:102CE000401EF44A10800846EAE72DE9F05F0646E8
:102CF0000F4690469946DDE90AAB0C9DEE480078F8
:102D000020B18B2028700020BDE8F09FFDF798FED1
:102D1000FFF7D2FF04462CB9FDF7ABFE86202870E2
:102D20000020F1E7012084F82500A661E76184F81E
:102D30002480C4F80490C4F808A0C4F820B0FDF7BB
:102D400098FE002028702046DEE7002180F825103C
:102D500080F82410C161416141608160D7A10162A6
:102D600000210161D1490968C160D0490860D0499A
:102D70000988491ECE4A1180CE490988491CCD4A8E
:102D80001180704730B5057D05F00704CC4D05EB8B
:102D9000C4031D68854205D1C168196039B1002599
:102DA0000D6104E00169C268CA6002B111610125C8
:102DB00080F825500025C56005619D886D1E9D80A9
:102DC00030BD70B505460C462878642803D08920AC
:102DD0002070002070BDB848007818B18B2020709A
:102DE0000020F7E7FDF72CFE95F82500D8B1012863
:102DF0000FD002280ED003281BD12846FFF7C2FFB0
:102E00002846FFF7A2FFFDF734FE002020700120C6
:102E1000E0E700BF2846FFF798FFFDF72AFE0020F5
:102E200020700120D6E7FDF724FE872020700020C7
:102E3000D0E7FDF71EFE8D2020700020CAE72DE9A7
:102E4000F04105460E4614462878642804D08920AF
:102E500020700020BDE8F0819748007818B111205B
:102E600020700020F6E7FDF7EBFD95F8250098B1FE
:102E7000012804D0022803D0032813D100BF00BFCB
:102E8000286A30603068FDF7E9F90746FDF7F1FD83
:102E9000002020703846DDE7FDF7EBFD872020702D
:102EA0000020D7E7FDF7E5FD8D2020700020D1E759
:102EB00070B504460D462078642803D08920287018
:102EC000002070BD7C48007818B18B20287000204D
:102ED000F7E7FDF7B5FD94F8250070B301280DD094
:102EE000022825D003282FD1764960690968461A3F
:102EF000FDF7BFFD002028703046E2E794F824007B
:102F000001280CD0022809D1A06908B9E66900E0BF
:102F1000A669FDF7AEFD0020287006E000BFA66997
:102F2000FDF7A7FD0020287000BF00BF3046C8E7AE
:102F3000FDF79FFD00202870C3E7FFE7FDF799FD2F
:102F4000872028700020BCE7FDF793FD8D202870B6
:102F50000020B6E770B505460C462878642803D0F3
:102F600089202070002070BD5348007818B18B2054
:102F700020700020F7E7FDF763FD95F8256036B176
:102F8000012E05D0022E04D0032E06D102E000BF90
:102F900000BF00BF0020207002E08D20207000BF25
:102FA00000BFFDF766FD3046DDE770B50B46032533
:102FB00080F82550012B05D1424EC569366835444D
:102FC00045610CE085692DB93E4EC56936683544CA
:102FD000456104E03B4E8569366835444561057DB1
:102FE00005F00704364D05EBC4010D682DB90860E6
:102FF0000025C56001258D8006E00A680860C26072
:1030000010618D886D1C8D800025056170BD70B5C7
:1030100005460C462878642803D0892020700020BB
:1030200070BD2548007818B18B2020700020F7E78C
:10303000FDF706FD95F82500E8B1012810D002281B
:103040000FD003281DD12846FFF79CFE00212846FB
:10305000FFF7ABFFFDF70DFD002020700120DFE73B
:1030600000BF00212846FFF7A0FFFDF702FD00206A
:1030700020700120D4E7FDF7FCFC872020700020A1
:10308000CEE7FDF7F6FC8D2020700020C8E72DE983
:10309000F04105460F4690461C462878642813D018
:1030A000892020700020BDE8F08100005CC007206E
:1030B0004EC007204CC0072019C007203F00000069
:1030C000D4DC072050C007207D48007818B18B2041
:1030D00020700020E7E7FDF7B3FC95F825000028F5
:1030E00032D001282AD0022827D0032832D12846FE
:1030F000FFF748FE00202070B7B1032F02D0042F45
:1031000013D108E06E681EB12846A968B04701E0F7
:103110008F2020700CE06E681EB141462846B047F3
:1031200001E08F20207003E002E08420207000BFC7
:1031300000BFFDF79EFC0120B5E700BFFDF799FC3D
:103140008E2020700120AEE7FDF793FC87202070D1
:103150000020A8E7FDF78DFC8D2020700020A2E75D
:1031600010B558480068FFF73DF80446204610BDEA
:1031700008B500BF00BF6A46002152480068FEF74C
:103180007FFFFDF75DFC50480068401C4E49086019
:103190000846007800F007084C4800EBC8073C6878
:1031A0001AE0E668484960690968884213D12046F8
:1031B000FFF7E8FD94F82400022804D101212046FD
:1031C000FFF7F3FE02E0022084F82500656815B1E0
:1031D0002046A168A8473446002CE2D1FDF749FCFF
:1031E000C9E700B587B0032000218022384BCDE924
:1031F0000132CDE903104FF6FD703D23354A0090B2
:103200003548FFF78AF906AA34A13D20FFF7F5FA01
:1032100007B000BDF8B54FF420713448FDF71BFB33
:1032200040212A48FDF717FB002515E0681C86B2EF
:1032300005EB85002D4901EBC00406EB860001EB90
:10324000C00764202070002084F82500E760AFF2FA
:1032500094102062681C85B20F2DE7D305EB850022
:10326000224901EBC00464202070002084F825006E
:10327000E060AFF2B81020620020134908601C49DA
:10328000088010201B49088018481B49086001204D
:10329000FEF769FE194908600020FEF764FE09493F
:1032A00008606A4616A115480068FDF712F86A46DC
:1032B00018A104480068FDF70CF8FFF792FFF8BD6D
:1032C00019C0072058C0072050C00720D4DC0720B1
:1032D000D4DA0720D0DC07207131000075432F4F6E
:1032E000532D494920546D720000000054D8072026
:1032F0004EC007204CC007205CC0072054C00720E8
:1033000075432F4F532D494920546D724C6F636B99
:103310000000000075432F4F532D494920546D7212
:103320005369676E616C00001D481E481E481F48A7
:103330001F48204820482148214822482248234845
:103340002348244824482548254826482648274815
:10335000274828482848294829482A482A482B48E5
:103360002B482C482C482D482D482E482E482F48B5
:103370002F48304830483148314832483248334885
:103380003348344834483548354836483648374855
:103390003748384838483948394800BF7047000036
:1033A00080330100843301008A3301008C33010033
:1033B000883301008E330100903301009233010005
:1033C0009433010096330100983301009A330100D1
:1033D0009C3301009E330100A0330100A2330100A1
:1033E000A4330100A6330100A8330100AA33010071
:1033F000AC330100AE330100B0330100B233010041
:10340000B4330100B6330100B8330100BA33010010
:10341000BC330100BE330100C0330100C2330100E0
:10342000C4330100C6330100C8330100CA330100B0
:10343000CC330100CE330100D0330100D233010080
:10344000D4330100D6330100D8330100DA33010050
:1034500054D80720D4DC0720DE330100E03301001C
:10346000E2330100E4330100E6330100E8330100F8
:10347000EA330100EC330100EE330100DC330100DC
:10348000F03301005C48802102E0491E002204C0A4
:103490000029FAD1594A5A4B1A600022594B1A8016
:1034A0007047704710B50446204600F073F910BD10
:1034B00010B50446204600F06EF910BD10B500F0BE
:1034C0006BF910BD10B50446204600F06AF910BD36
:1034D00010B500F062F910BD70B5044610464FF00B
:1034E00080750560051F28462C60474E051F28463D
:1034F0002E604FF01236051F28462E604FF003361F
:10350000051F28462E604FF00236051F28462E6004
:103510007610051F28462E60051F284629604FF0AB
:103520001136051F28462E604FF01036051F28461D
:103530002E604FF00936051F28462E604FF00836E2
:10354000051F28462E604FF00736051F28462E60BF
:103550004FF00636051F28462E604FF00536051F32
:1035600028462E604FF00436051F28462E6070BD99
:1035700010B500F013F910BD10B50446204600F058
:103580000EF910BD10B500F00BF91E480088401C64
:103590001C490880084600880A2803D300200880B8
:1035A000FFF7DEFD10BD10B506F04EFF0FF05AF824
:1035B000044616480078401C1449087020460FF055
:1035C00055F8FDF701FBFDF703FA10BD411E4FF062
:1035D000E0225161FF210E4A11704FF0E02109698C
:1035E00041F005014FF0E02211611146096941F0F7
:1035F0000201116170470000700300106C0500109B
:1036000060C0072064C00720DF2A000019C007201F
:1036100023ED00E010B507F033F906F085FF06F062
:1036200000FE10BD1CB5684607F0E6FF28B19DF806
:10363000010010B19DF801001CBD0020FCE72DE940
:10364000F04F89B0FFF7EEFF002838D003F0F4FB0D
:103650003D490968401A642831D93CA000F0A5FB17
:103660000DF094FB04460DF009FB05460DF020FA21
:1036700006460DF0F6F8074605F059FB804605F0C2
:1036800053FB814605F05FFB824605F059FB8346FC
:1036900005F0A6FB089005F09BFB5B46CDE900A971
:1036A000CDE90287CDE90465CDE9064001462D4804
:1036B000089A00F0C4FB03F0BFFB2349086009B07F
:1036C000BDE8F08F00F022F903F0A4F806F00DFF3A
:1036D00025A008F0CCFD09F069FA33E006F0A1FD61
:1036E0000CF041FF23A000F0AAFB0AF04EFB09F00A
:1036F00013FF22A000F0A3FB0DF061F90DF049FBD0
:1037000020A000F09CFB04F080FC20A000F097FBC0
:1037100003F092FB04460CF0E2FB201AB0F52F7F79
:103720000CD903F089FB04460CF0D9FB201AB0F544
:10373000487F01D208F018FD07F0A2F806F0F4FE69
:10374000FFF77DFFCAE7000068C007200D0AB8DF59
:10375000B6C8312C25642CB8DFB6C8322C25642CB1
:1037600000000000443701002020202020202020DD
:10377000200000000D0A2033000000000D0A203553
:10378000000000000D0A2037000000000D0A20385C
:1037900000000000704770477047704770477047DF
:1037A000704770470948804709480047FEE7FEE731
:1037B000FEE7FEE7FEE7FEE7FEE7FEE7FEE7FEE7E1
:1037C00004480549034A054B704700000D390000C5
:1037D000CD000000C0390010C0F90720C0F7072055
:1037E0009A480068C0F3016003285DD1974884308F
:1037F000006800F0030030B1012820D0022839D041
:10380000032850D100E000BF90480068C0F30E00CC
:10381000401C40008E4948438C498839D1F88810B3
:10382000C1F30741491CB0FBF1F188487C300068C6
:10383000C0B2401CB1FBF0F08649086033E0834819
:103840000068C0F30E00401C4000834948437F4994
:103850008839D1F88810C1F30741491CB0FBF1F158
:103860007A487C300068C0B2401CB1FBF0F0794966
:10387000086018E075480068C0F30E00401C0104A1
:1038800072488838D0F88800C0F30740401CB1FB6C
:10389000F0F16E487C300068C0B2401CB1FBF0F023
:1038A0006C49086000BF30E068488430006800F070
:1038B000030030B1012810D0022819D0032823D1E9
:1038C00000E000BF61487C300068C0B2401C604925
:1038D000B1FBF0F05F49086016E05C487C3000689E
:1038E000C0B2401C5C49B1FBF0F05A4908600BE0E3
:1038F00056487C300068C0B2401C4FF40041B1FB18
:10390000F0F05449086000BF00BF70474FF04070AE
:1039100001142022514B1A604C4A883AD2F8A02157
:1039200002F0200232B100BF4C4A126802F040029D
:10393000002AF9D00322454B7C331A600022434B06
:10394000883BC3F8A821454B0C331A6001223F4B3A
:1039500084331A60424A3D4B1B1F1A60AA223B4B1C
:103960001B1D1A6055221A600122384B083B1A6051
:10397000AA22364B1B1D1A605522344B883BC3F8D4
:103980008C2000BF314A126802F08062002AF9D010
:1039900003222E4B083B1A60AA222C4B883BC3F80B
:1039A0008C205522294B1B1D1A6000BF274A126824
:1039B00002F04072B2F1407FF8D12322234B1C3336
:1039C0001A60AA22214B883BC3F8AC2055221F4B1A
:1039D00024331A6001221D4B18331A60AA221B4B94
:1039E00024331A605522194B883BC3F8AC2000BF22
:1039F000164A2032126802F48062002AF8D00322AC
:103A0000124B18331A60AA22104B883BC3F8AC2023
:103A100055220E4B24331A6000BF0C4A2032126824
:103A200002F44072B2F5407FF7D10E4A074B3C33A7
:103A30001A600022054B883BC3F8C82143F23A02C2
:103A40001A604FF48032084B1A60704788C00F40EC
:103A500000093D0000000010001BB700A0C10F408E
:103A600063000500DE87280408ED00E013B5044676
:103A700001231A4601A9204601F034FF1CBD38B5C8
:103A800004460020009001231A466946204601F0B2
:103A900075FF9DF8000038BD70B506460D462C46F2
:103AA00004E014F8011B3046FFF7E0FF20780028FF
:103AB000F7D170BD70B504460D4629462046FFF784
:103AC000EBFFFEA12046FFF7E7FF70BD2DE9F041B7
:103AD00005460C460A2094FBF0F100FB1140C6B2EB
:103AE0000A2094FBF0F00A2190FBF1F201FB120096
:103AF000C7B2642094FBF0F090FBF1F201FB1200DE
:103B000000F0FF0808F13000C1B22846FFF7AEFF11
:103B100007F13000C1B22846FFF7A8FF06F13000D8
:103B2000C1B22846FFF7A2FFBDE8F0812DE9F047BA
:103B300005460C460A2094FBF0F100FB1140C6B28A
:103B40000A2094FBF0F00A2190FBF1F201FB120035
:103B5000C7B2642094FBF0F090FBF1F201FB12007D
:103B600000F0FF084FF47A7094FBF0F090FBF1F254
:103B700001FB120000F0FF0942F2107094FBF0F01C
:103B800090FBF1F201FB120000F0FF0A0AF1300095
:103B9000C1B22846FFF76AFF09F13000C1B22846DA
:103BA000FFF764FF08F13000C1B22846FFF75EFF5F
:103BB00007F13000C1B22846FFF758FF06F1300088
:103BC000C1B22846FFF752FFBDE8F0872DE9F34F59
:103BD00083B00C460A20B4FBF0F100FB1145B4FBA6
:103BE000F0F00A21B0FBF1F201FB12066420B4FBF5
:103BF000F0F0B0FBF1F201FB12074FF47A70B4FB66
:103C0000F0F0B0FBF1F201FB120842F21070B4FBCD
:103C1000F0F0B0FBF1F201FB1209A948B4FBF0F09F
:103C2000B0FBF1F201FB120AA648B4FBF0F0B0FBC6
:103C3000F1F201FB120BA448B4FBF0F0B0FBF1F27F
:103C400001FB12000290A148B4FBF0F0B0FBF1F2CE
:103C500001FB120001909E48B4FBF0F0B0FBF1F2C2
:103C600001FB1200009000983030C1B20398FFF7BA
:103C7000FDFE01983030C1B20398FFF7F7FE0298BD
:103C80003030C1B20398FFF7F1FE0BF13000C1B242
:103C90000398FFF7EBFE0AF13000C1B20398FFF77B
:103CA000E5FE09F13000C1B20398FFF7DFFE08F12D
:103CB0003000C1B20398FFF7D9FE07F13000C1B25E
:103CC0000398FFF7D3FE06F13000C1B20398FFF767
:103CD000CDFE05F13000C1B20398FFF7C7FE05B075
:103CE000BDE8F08F2DE9F04107460D4679A1384631
:103CF000FFF7D2FE012600BFB00045FA00F000F049
:103D00000F04092C02DD04F1370001E004F130005A
:103D1000C1B23846FFF7AAFE301EA6F10101CEB2AD
:103D2000EAD1BDE8F0812DE9F04107460D4669A1D1
:103D30003846FFF7B1FE032600BFB00045FA00F099
:103D400000F00F04092C02DD04F1370001E004F15A
:103D50003000C1B23846FFF789FE301EA6F10101DE
:103D6000CEB2EAD1BDE8F0812DE9F04107460D461B
:103D700058A13846FFF790FE072600BFB00025FA8D
:103D800000F000F00F04092C02DD04F1370001E01F
:103D900004F13000C1B23846FFF768FE301EA6F1CC
:103DA0000101CEB2EAD1BDE8F0810FB410B5C2B0C6
:103DB00044980DF0FDF844980DF0FAF8C82803D99E
:103DC00042B010BC5DF814FB45A8419001A8419A8F
:103DD00044990DF0AFF80020419001A80DF0E8F8EB
:103DE0000446214601A804F019FB00BFE8E70FB420
:103DF00030B5C1B044980DF0DBF844980DF0D8F818
:103E0000C82803D941B030BC5DF814FB45A84090E8
:103E10006846409A44990DF08DF804466846409AE9
:103E200044990DF087F80020409068460DF0C0F8E6
:103E300005462946684603F0F1F900BFE2E710B5F0
:103E40000446022002F0FEFF10BD0FB410B5C2B050
:103E500044980DF0ADF844980DF0AAF8C82803D99D
:103E600042B010BC5DF814FB45A8419001A8419AEE
:103E700044990DF05FF80020419001A80DF098F8EA
:103E80000446214601A803F035FD00BFE8E71FB551
:103E900001208DF8020000208DF804008DF8030049
:103EA00002208DF8010000208DF80000684600F027
:103EB0000DFB03208DF8010068460DE00A0D00009F
:103EC000A086010040420F008096980000E1F505B1
:103ED00000CA9A3B3078000000F0F8FA02A801F01E
:103EE000BFFC4FF4E130029002A9184801F034FB06
:103EF0000121164801F025FCAFF263401449086027
:103F0000AFF24F4013490860AFF29F40124908607A
:103F1000AFF22F2011490860AFF2F5101049086088
:103F2000AFF2BB100F490860AFF25F400E49086066
:103F3000AFF207400D490860AFF26F300C490860DE
:103F4000AFF2C5400B4908601FBD000000C0004033
:103F50006CC0072070C0072074C0072084C00720F1
:103F600088C007208CC0072078C007207CC00720AD
:103F700080C0072090C007202DE9F04104460D467F
:103F8000C248844200D103E04821C1A000F030FAC9
:103F90001DB1C648854200D803E04921BCA000F00D
:103FA00027FA0121080300F0E0F9002020604FF417
:103FB0000018182000F0BCF9064605EB851707EB42
:103FC00046007900B0FBF1F0471E48EA0728C4F824
:103FD0000080BDE8F08110B50446AC48844200D1B1
:103FE00003E06921AAA000F003FA206800F0E06075
:103FF00018B1206820F0E0602060206820F0FF0009
:104000002060206820F40010206000214FF48050D0
:1040100000F0ABF910BD014601B100BF00BF9B48E5
:10402000103050F82120C2F30B10704770B50546D0
:104030000C469648854200D103E0952194A000F0FB
:10404000D7F96CB1012C0BD0022C09D0032C07D06E
:10405000042C05D0052C03D0062C01D0072C00D150
:1040600003E096218AA000F0C3F9286820F0E06000
:104070002860286840EA0460286070BD70B5044676
:104080000D468248844200D103E0A72180A000F0C1
:10409000AFF9206820F4803020601DB1206840F422
:1040A0008030206070BD70B504460D46774884426C
:1040B00000D103E0B92176A000F09AF9206820F43D
:1040C000001020601DB1206840F40010206070BD19
:1040D00070B504460D466D48844200D103E0CB2103
:1040E0006BA000F085F90DB1012D00D103E0CC21CA
:1040F00067A000F07DF9206820F0006020601DB10D
:10410000206840F00060206070BD70B505460C4628
:1041100016465E48854200D103E0E4215CA000F031
:1041200067F97CB1012C0DD0022C0BD0032C09D0E7
:10413000042C07D0052C05D0062C03D0072C01D069
:10414000082C00D103E0E52151A000F051F9E86806
:104150000121A1408843E86026B1E9680120A04020
:104160000143E96070BD70B504460D4616464748E8
:10417000844200D103E0F72145A000F039F905B1F0
:1041800000BF00BF012E05D120680121A9400843CE
:1041900020600CE0206800F0E06018B1206820F09A
:1041A000E060206020680121A9408843206070BD44
:1041B00070B504460D463548844200D104E040F213
:1041C0000D1133A000F014F905B100BF00BF04F1D8
:1041D000100050F82560C6F30B1070BD2DE9F041BA
:1041E00007460E4614462948874200D104E040F2B3
:1041F000211127A000F0FCF806B100BF00BF0CB1F0
:10420000012C00D104E040F2231121A000F0F0F8CD
:1042100007F1100050F8265014B105F0004501E0F8
:1042200005F0804515B10120BDE8F0810020FBE7D5
:1042300010B504461548844200D104E04FF49D7146
:1042400013A000F0D5F8606810BD70B506460C46A6
:104250000E48864200D104E040F24B110CA000F061
:10426000C7F80CB1012C00D104E04FF4A67108A0EE
:1042700000F0BEF8756814B105F0004501E005F0E6
:1042800080450DB1012070BD0020FCE700400340D7
:104290004353425C736F757263655C6C7063313756
:1042A00078785F6164632E6300000000400D0300B6
:1042B00010B50A46202801D2034601E0A0F12003F0
:1042C0001946202810D2454B1B6803248C40A34379
:1042D000434CC4F8A831414B1B6802FA01F4234354
:1042E0003F4CC4F8A83111E03C4B1B1D1B68032454
:1042F0008C40A3433A4CC4F8AC31384B1B1D1B68AF
:1043000002FA01F42343364CC4F8AC3110BD014627
:10431000202903D20A46314B186804E0A1F120029B
:104320002E4B1B1D186820FA02F303F003007047A0
:1043300070B506462B4804683046FFF7E8FF05468F
:1043400035B1012D06D0022D06D0032D08D105E090
:10435000042505E0012503E0022501E0082500BF52
:1043600000BFB4FBF5F4204670BD012909D11C4AF9
:10437000C43212681C4B03401A43194BC3F8C420C3
:1043800009E041B9164AC4321268174B83431A40F8
:10439000134BC3F8C420704700201149C031086096
:1043A00030BF704704201149086000200C49C0311B
:1043B000086030BF704704200C490860012008499C
:1043C000C031086030BF70470420084908600320EE
:1043D0000349C031086030BF70470000A8C10F40DA
:1043E00000C00F4000000010DEF7EFEF10ED00E01E
:1043F00000BFFEE7F0B504460B46154619466000BF
:104400003B4A102901D31039401C52F820604FEA72
:10441000410C032707FA0CF7BE4342F8206052F81C
:1044200020604F0005FA07F73E4342F82060F0BDD8
:10443000F0B504460B461546194660002C4A40323A
:10444000102901D31039401C52F820604FEA410C6A
:10445000032707FA0CF7BE4342F8206052F82060A9
:104460004F0005FA07F73E4342F82060F0BD30B533
:104470000B461F496831012A07D151F82040012518
:104480009D402C4341F8204006E051F82040012592
:104490009D40AC4341F8204030BD012806D114496D
:1044A000896A41F00801124A916206E028B9104970
:1044B000896A21F008010E4A91627047012800D1F3
:1044C000052201B90A220A4BDA67704710B5044683
:1044D000A27861782078FFF78DFFE2786178207804
:1044E000FFF7A6FF227961782078FFF7C0FF10BDA3
:1044F00000C002402DE9F04704468846F84884424F
:1045000002D0F848844200D103E04921F6A0FFF729
:104510006FFFF348844204D12A20FFF709FF0746C2
:1045200009E0F048844204D11420FFF701FF074658
:1045300001E0BDE8F08700254FF0FF3902260AE0D0
:10454000681C7043B7FBF0F9C14504D96D1CFF2D01
:1045500001D90025B61CC145F2D82068C0B2206040
:1045600020684FF6FF7101EA052108432060F0B290
:10457000206100BFDDE770B504460D46D84884428F
:1045800002D0D848844200D103E08721D6A0FFF7AB
:104590002FFFD348844204D101214805FFF7E5FEEF
:1045A00008E0D048844204D101210015FFF7DDFE68
:1045B00000E070BDA88829890843298A0843298812
:1045C000084386B22660287B00F00F06666020460E
:1045D0006969FFF78FFF00BFEBE710B50446C048DD
:1045E000844202D0BF48844200D103E0AE21BEA085
:1045F000FFF7FEFEBA48844205D100214FF40010B7
:10460000FFF7B3FE06E0B748844203D1002100154E
:10461000FFF7ABFE10BD10B50446B148844202D08E
:10462000B048844200D103E0C621AFA0FFF7E0FE0E
:10463000206800F00F0010BD8021416040218160A2
:10464000B0494161072101600021C16001617047EB
:1046500070B504460D46A248844202D0A148844267
:1046600000D103E0EC21A0A0FFF7C2FE0DB1012DA7
:1046700000D103E0ED219CA0FFF7BAFE012D04D18B
:10468000606840F00200606003E0606800F00D00C8
:10469000606070BD70B504460D469148844202D0FA
:1046A0009048844200D104E040F205118EA0FFF74B
:1046B0009FFE0DB1012D00D104E04FF483718AA05B
:1046C000FFF796FE012D04D1606840F001006060A4
:1046D00003E0606800F00E00606070BD70B50446D5
:1046E0000D467F48844202D07E48844200D104E0D7
:1046F00040F221117CA0FFF77BFE0DB1012D00D10E
:1047000004E04FF4917178A0FFF772FE012D04D1FF
:10471000606800F00700606003E0606840F0080037
:10472000606070BD70B504460D466D48844202D08D
:104730006C48844200D104E040F23B116AA0FFF7CC
:1047400057FEA8B2A06070BD10B50446644884420C
:1047500002D06448844200D104E040F24B1162A0D0
:10476000FFF746FEA06880B210BD2DE9F74F82B07A
:1047700006460C460020E0606060606103E0304661
:10478000FFF7E2FF0746F06800F004000028F6D1CA
:10479000032030623046FFF73EFF072801D901258C
:1047A00000E00025049800287AD125B9D4F80890B3
:1047B000D4F800A003E0D4F808B02068019060E0CD
:1047C000F06800F0020010B32169606888422AD2C4
:1047D000206888B93DB9FF213046FFF7A3FF606824
:1047E000401C60601FE04FF6FF713046FFF79AFFF4
:1047F0006068801C606016E055B99AF80010304679
:10480000FFF790FF0AF1010A6068401C60600AE04F
:10481000019801883046FFF785FF0198801C0190C0
:104820006068801C6060D6F8188008F0010038B11C
:1048300048F4007060614FF0FF3005B0BDE8F08FC4
:1048400017E03046FFF780FF0746A06848B125B95A
:1048500089F8007009F1010903E0ABF800700BF171
:10486000020B1DB9E068401CE06002E0E068801CBB
:10487000E060F06800F0040018B1D4E90301884258
:10488000DFD32169606888429AD3D4E90301884262
:1048900096D34FF480706061206810B16068CCE7F7
:1048A00005E0A06808B1E068C7E70020C5E7049804
:1048B00001287AD166E0206888B93DB9FF213046E9
:1048C000FFF730FF6068401C606031E04FF6FF7119
:1048D0003046FFF727FF6068801C606028E013E027
:1048E00000800840000003404353425C736F7572C0
:1048F00063655C6C7063313778785F7373702E63B7
:104900000000000040420F004DB9D4E90002815C74
:104910003046FFF707FF6068401C606008E0D4E99C
:104920000002815A3046FFF7FDFE6068801C60601F
:10493000D6F8188008F0010028B148F400706061D2
:104940004FF0FF3079E715E03046FFF7FDFE0746F0
:10495000A06838B11DB9D4E902128F5402E0D4E93D
:1049600002128F521DB9E068401CE06002E0E0686E
:10497000801CE060F06800F0040018B1D4E9030185
:104980008842E1D3F06800F0020018B12169606844
:10499000884290D3D4E90301884203D32169606837
:1049A000884203D20F20706103E004E04FF480706E
:1049B0006061002041E74FF0FF303EE770B50546EB
:1049C0000C467748854202D07648854200D105E002
:1049D00040F21D21AFF2F000FFF70AFD012C07D0D5
:1049E000022C05D0042C03D0082C01D0102C00D1AF
:1049F00005E040F21E21AFF21010FFF7F9FCE86865
:104A0000204008B1012070BD0020FCE770B50446CD
:104A10000D4616466248844202D06248844200D164
:104A200005E040F23521AFF24010FFF7E1FC012E26
:104A300003D160692843606104E060690F21A943E4
:104A40000840606170BD70B505460C46544885420B
:104A500002D05448854200D105E040F25221AFF225
:104A60007810FFF7C5FC012C05D0022C03D0042CD4
:104A700001D0082C00D105E040F25321AFF298108C
:104A8000FFF7B6FCA869204008B1012070BD0020E6
:104A9000FCE710B504464248844202D041488442B3
:104AA00000D105E040F26121AFF2C410FFF7A0FC95
:104AB000A06910BD70B505460C463948854202D044
:104AC0003848854200D105E040F27621AFF2E81087
:104AD000FFF78EFC012C05D0022C03D0042C01D052
:104AE000082C00D105E040F27721AFF20420FFF757
:104AF0007FFCE869204008B1012070BD0020FCE780
:104B000070B504460D462648844202D025488442AA
:104B100000D105E040F28A21AFF23420FFF768FCB3
:104B2000012D01D0022D00D105E040F28B21AFF222
:104B30004820FFF75DFC256270BD70B504460D4648
:104B400016461748844202D01648844200D105E038
:104B50004FF42871AFF27020FFF74AFC022D01D00C
:104B6000012D00D105E040F2A121AFF28420FFF732
:104B70003FFC0EB1012E00D105E040F2A221AFF2C0
:104B80009820FFF735FC012E03D1606A284360624C
:104B900004E0606A0321A9430840606270BD000020
:104BA00000800840000003402DE9F04104465548CC
:104BB000056800684FF47A71B0FBF1F04FF0807136
:104BC000B1FBF0F738460EF09DF9064620460EF090
:104BD00099F9074631460EF0A9FA01D200BFFEE767
:104BE0004FF0E020006940F004004FF0E021086140
:104BF0004FF47A70B5FBF0F06043401E4861BDE8A9
:104C0000F0812DE9F04104460D464FF47A70B4FB73
:104C1000F0F04FF08071B1FBF0F738460EF072F90A
:104C2000064628460EF06EF9074631460EF07EFA2B
:104C300001D200BFFEE74FF0E020006920F0040041
:104C40004FF0E02108614FF47A70B4FBF0F0684354
:104C5000471E38460EF056F906464FF47A70B4FBFC
:104C6000F0F06843401E4FF0E0214861BDE8F0815C
:104C700010B504460CB1012C00D103E0862122A01E
:104C8000FFF7B6FB012C08D14FF0E020006940F09F
:104C900001004FF0E021086107E04FF0E0200069DB
:104CA00020F001004FF0E021086110BD10B504466E
:104CB0000CB1012C00D103E0992113A0FFF798FB60
:104CC000012C08D14FF0E020006940F002004FF0C5
:104CD000E021086107E04FF0E020006920F00200C9
:104CE0004FF0E021086110BD4FF0E020806970476F
:104CF0004FF0E020006920F480304FF0E02108619F
:104D000070470000000000104353425C736F7572DF
:104D100063655C6C7063313778785F73797374693D
:104D2000636B2E630000000070B5054635B1012DA0
:104D300009D0022D0CD0032D14D10EE00220FFF774
:104D4000F7FA04460EE00420FFF7F2FA044609E001
:104D50002C20FFF7EDFA044604E02E20FFF7E8FAD6
:104D6000044600BF00BF204670BD2DE9F0478146D4
:104D70000C464846FFF7D8FF002605460023294683
:104D8000A1FB047C06FB04C205FB0321FB4A384659
:104D90000CF058F805462846BDE8F08701464FF06C
:104DA000FF30B1F1402F01D100200DE0F44A9142D3
:104DB00001D1012008E0F34A914201D1022003E031
:104DC000F14A914200D10320704770B505460C4668
:104DD000B5F1402F08D0EA48854205D0E948854220
:104DE00002D0E948854200D103E0AC21E7A0FFF7FB
:104DF000FFFA4CB1012C07D0022C05D0032C03D0B4
:104E0000042C01D0052C00D103E0AD21DFA0FFF779
:104E1000EFFA28680121A1400840C6B20EB1012076
:104E200070BD0020FCE770B505460C46B5F1402F7B
:104E300008D0D348854205D0D248854202D0D24816
:104E4000854200D103E0CA21D0A0FFF7D1FA4CB1CE
:104E5000012C07D0022C05D0032C03D0042C01D048
:104E6000052C00D103E0CB21C8A0FFF7C1FA2868C8
:104E7000211D01228A401040C6B20EB1012070BD32
:104E80000020FCE770B505460C46B5F1402F08D070
:104E9000BB48854205D0BB48854202D0BA4885420E
:104EA00000D103E0E321B9A0FFF7A2FA4CB1012C35
:104EB00007D0022C05D0032C03D0042C01D0052CE4
:104EC00000D103E0E421B1A0FFF792FA0120A04055
:104ED000286070BD70B505460C46B5F1402F08D06E
:104EE000A748854205D0A748854202D0A6488542FA
:104EF00000D103E0FA21A5A0FFF77AFA4CB1012C0A
:104F000007D0022C05D0032C03D0042C01D0052C93
:104F100000D103E0FB219DA0FFF76AFA201D0121CB
:104F20008140296070BD20B90A4601231370536087
:104F300003E00A460023537000BF70472DE9F04795
:104F400004460D461646B4F1402F08D08C488442E2
:104F500005D08C48844202D08B48844200D104E0C2
:104F600040F2311189A0FFF743FA1DB1012D01D0A4
:104F700000D000D104E04FF4997184A0FFF738FA13
:104F8000B4F1402F08D101210220FFF7EEF90021F2
:104F90000220FFF78DF922E07948844208D10121EF
:104FA0000420FFF7E2F900210420FFF781F916E061
:104FB0007448844208D101218805FFF7D6F9002101
:104FC0002C20FFF775F90AE06F48844207D10121D0
:104FD000C805FFF7CAF900212E20FFF769F9A06A7A
:104FE00020F00300A062A06AA0620020A0602061FF
:104FF000E060606840F002006060606820F00200DD
:10500000606085B93746387818B97868401EE06026
:1050100017E02046FFF7C2FE81467968FFF7A5FE3C
:10502000401EE0600DE0B046A06A20F00C00A062D7
:10503000464698F80100012803D1A06A40F0040018
:10504000A0624FF0FF302060BDE8F08710B5044645
:10505000B4F1402F08D04A48844205D049488442E0
:1050600002D04948844200D104E040F27F1147A0B9
:10507000FFF7BEF900206060B4F1402F04D1002199
:105080000220FFF772F918E03D48844204D1002164
:105090000420FFF76AF910E03A48844205D1002164
:1050A0004FF48000FFF761F907E03748844204D1EC
:1050B00000214FF48000FFF758F910BD70B5044689
:1050C0000D46B4F1402F08D02D48844205D02D481C
:1050D000844202D02C48844200D104E04FF4D071C5
:1050E0002AA0FFF785F9012D04D1606840F0010086
:1050F000606003E0606820F00100606070BD10B582
:105100000446B4F1402F08D01D48844205D01D4804
:10511000844202D01C48844200D104E04FF4DC7188
:105120001AA0FFF765F9606840F0020060606068EF
:1051300020F00200606010BD70B504460D46B4F169
:10514000402F08D00E48844205D00E48844202D039
:105150000D48844200D104E040F2D7110BA0FFF7C4
:1051600047F9287940B12879012805D02879022803
:1051700002D02879032817D11CE0000040420F001C
:105180000080004000000940004009404353425C59
:10519000736F757263655C6C7063313778785F74B8
:1051A000696D65722E6300004FF4EC71AFF224005C
:1051B000FFF71EF9287830B1012807D0022808D05F
:1051C00003280CD108E0A868A0610AE0A868E061A3
:1051D00007E0A868206204E0A868606201E000BF00
:1051E000FEE700BF6069297801EB41020721914089
:1051F00088436061687838B16069297801EB4102C1
:105200000121914008436061E87840B160692978E4
:1052100001EB4101491C01228A4010436061A878DA
:1052200040B16069297801EB4101891C01228A4063
:1052300010436061E06B2978042202EB41020321F4
:1052400091408843E063287900F003002978042224
:1052500002EB41018840E16B0843E06370BD70B52B
:1052600004460E461546B4F1402F08D04348844208
:1052700005D04348844202D04248844200D105E030
:1052800040F20D21AFF2FC00FFF7B2F836B1012E6B
:1052900006D0022E06D0032E08D105E0A56107E056
:1052A000E56105E0256203E0656201E000BFFEE71D
:1052B00000BF70BD70B504460D46B4F1402F08D054
:1052C0002E48844205D02E48844202D02D48844284
:1052D00000D105E040F23321AFF25010FFF788F81B
:1052E000A06A297801EB4102072191408843A0621E
:1052F000687838B1A06A297801EB41020121914018
:105300000843A062A87840B1A06A297801EB410166
:10531000491C01228A401043A062E87840B1A06A8B
:10532000297801EB4101891C01228A401043A062C7
:1053300070BD70B504460D46B4F1402F08D00F483B
:10534000844205D00E48844202D00E48844200D1E7
:1053500005E040F24E21AFF2CC10FFF749F80DB155
:10536000012D00D105E040F24F21AFF2E010FFF730
:105370003FF80DB9E06A70BD206BFCE7008000408B
:1053800000000940004009402DE9F04F8BB0044671
:10539000894600200990F748844204D10620FEF790
:1053A000C7FF074616E0F448844204D10820FEF700
:1053B000BFFF07460EE0F148844204D13020FEF7DB
:1053C000B7FF074606E0EE48844203D13220FEF7DD
:1053D000AFFF07464FF0FF3B0020079006900025E7
:1053E0002E464FF001084DE00020089040E008985C
:1053F000404400FB09FC0020010741EA171138076F
:105400000022A0FB083E01FB08E100FB02106246FF
:10541000CDE900300023DDE900010BF013FDCDE9FB
:10542000040104980390DDF814A00398B0F1004F34
:1054300004D90398404203900AF1010ABAF1000F1F
:1054400002D0BAF5803F00D90FE0039858450BD23F
:10545000DDF80CB00026554608980790CDF8188066
:10546000BBF1000F00D106E000BF0898401C089077
:1054700008984045BBD300BFBBF1000F00D104E04A
:1054800008F10108B8F10F0FAED900BF002185EA7D
:1054900001007140084302D10BB0BDE8F08F38091C
:1054A000069900FB01FC0846079908440021A0FB6F
:1054B000052301FB053100FB06100346CDE9002062
:1054C000604600210BF0BEFC02900298814503D992
:1054D0000298A9EB000B02E00298A0EB090B6420F4
:1054E0000BFB00F0B0FBF9FBBBF1030F32D2A2487B
:1054F000844216D1207B40F080002073280A40EAC5
:10550000066020712570207B00F07F002073F02161
:10551000069801EA0010079901F00F010843A06204
:1055200016E0207B40F080002073280A40EA0660E5
:1055300020712570207B00F07F002073F0210698F9
:1055400001EA0010079901F00F01084384F82800D0
:105550000120099009989FE770B504460D468548DB
:10556000844208D08448844205D08448844202D0D2
:105570008348844200D103E0CF2182A0FEF738FFA8
:10558000687940B16879012805D06879022802D08D
:105590006879032800D103E0D0217AA0FEF728FF24
:1055A000A87910B1A879012800D103E0D12175A014
:1055B000FEF71EFF287958B12879012808D02879EC
:1055C000022805D02879032802D02879042800D1A0
:1055D00003E0D2216BA0FEF70BFF6648844203D1A3
:1055E00001210820FEF7C1FE6348844203D1012156
:1055F0001020FEF7BAFE6148844203D1012108065B
:10560000FEF7B3FE5E48844203D101214806FEF74F
:10561000ACFE5948844223D107202072002020721A
:1056200000E02678207D00F001000028F9D18020DC
:1056300084F8300000BF207D00F020000028FAD060
:10564000002084F83000606020732062207484F8A9
:105650004C0084F8540084F85000267E267D1AE021
:10566000072020720020207200E02678207D00F0C4
:1056700001000028F9D1802084F8300000BF207D8F
:1056800000F020000028FAD0002084F8300060608C
:1056900020732062267D3A48844202D1002084F89B
:1056A000240020462968FFF76FFE3348844203D167
:1056B000207B00F0C00602E0207B00F0C006687985
:1056C00030B1012806D0022807D0032808D108E00D
:1056D00000BF09E046F0010606E046F0020603E0DE
:1056E00000BF46F0030600BF00BF2879C0B146F0F6
:1056F00008062879012806D0022806D0032807D0FA
:1057000004280BD107E000BF09E046F0100606E0D0
:1057100046F0200603E046F0300600E000BF00BF80
:10572000A87928B1012802D146F0040601E000BFA3
:1057300000BF00BF1048844201D1267300E02673E9
:1057400070BD70B504460D460A48844208D00A4828
:10575000844205D00948844202D00948844200D1DD
:1057600004E04FF47C7107A0FEF742FE0DB1012D5D
:1057700016D11BE000C0004000000140008009403D
:1057800000C009404353425C736F757263655C6C83
:105790007063313778785F756172742E6300000032
:1057A00040F2F131AFF22400FEF722FE012D10D1BC
:1057B000F948844206D194F8300040F0800084F823
:1057C000300014E094F8300040F0800084F830009D
:1057D0000DE0F148844205D194F83000002084F8AF
:1057E000300004E094F83000002084F8300070BDF0
:1057F00010B50446E948844208D0E748844205D001
:10580000E748844202D0E748844200D105E040F2F4
:105810009B11AFF29000FEF7EBFD00212046FFF751
:1058200090FFDE48844203D100210820FEF79DFD51
:10583000D948844203D100211020FEF796FDD848B4
:10584000844204D100214FF08070FEF78EFDD548D0
:10585000844204D100214FF00070FEF786FD10BD98
:105860004FF41651016003214171002101718171D2
:10587000704770B504460D46C848844208D0C648F3
:10588000844205D0C648844202D0C648844200D132
:1058900005E040F2DF11AFF21410FEF7A9FDBE489B
:1058A000844201D1257000E0257070BD10B504461A
:1058B000BA48844208D0B848844205D0B8488442E7
:1058C00002D0B848844200D105E04FF4FC71AFF239
:1058D0004C10FEF78DFDB048844201D1207810BDF8
:1058E0002078FCE72DE9FF5F80468A4693465746BD
:1058F0005C460398012825D1002520E04FF0FF39B0
:1059000005E0B9F1000F00D107E0A9F1010998F80D
:10591000140000F020000028F3D000BFB9F1000F00
:1059200000D10EE0102607E017F8011B4046FFF7F4
:10593000A0FF761E641E6D1C0EB1002CF4D1002C4D
:10594000DCD117E0002512E098F8140000F02000E8
:1059500000B90EE0102607E017F8011B4046FFF7DC
:1059600088FF641E761E6D1C0EB1002CF4D1002C35
:10597000EAD100BF284604B0BDE8F09F2DE9F05FF2
:105980000746894692469B464E465546BBF1010F57
:105990001ED1002419E04FF0FF3805E0B8F1000FE8
:1059A00000D106E0A8F10108387D00F001000028D0
:1059B000F4D000BFB8F1000F00D108E03846FFF77F
:1059C00075FF06F8010B6D1E641C002DE3D110E07D
:1059D00000240BE0387D00F0010000B908E03846F3
:1059E000FFF764FF06F8010B641C6D1E002DF1D15A
:1059F00000BF2046BDE8F09F10B5044667488442CA
:105A000008D06548844205D06548844202D0654884
:105A1000844200D105E040F28A21AFF29820FEF7DF
:105A2000E7FC5D48844204D1207B40F040002073B5
:105A300003E0207B40F04000207310BD2DE9F041D1
:105A400004460D4617465548844208D052488442C1
:105A500005D05348844202D05248844200D105E028
:105A600040F2B121AFF2E420FEF7C2FC0FB1012FEA
:105A700000D105E040F2B221AFF2F820FEF7B8FC09
:105A8000072D15D2DFE805F00406080A0C0E1100F8
:105A900001260DE002260BE0042609E0082607E0B7
:105AA000802605E04FF4807602E04FF4007600BFD8
:105AB00000BF3948844214D15DB1012D09D0022DB7
:105AC00007D0052D05D0062D03D0032D01D0042DC0
:105AD00000D116E040F2CE21AFF25830FEF788FC3C
